{"contracts/CroudFunding.sol":{"DeFi":{"abi":[{"inputs":[{"internalType":"address","name":"_commonWallet","type":"address"},{"internalType":"address","name":"_investmentWallet","type":"address"}],"stateMutability":"nonpayable","type":"constructor"},{"anonymous":false,"inputs":[{"indexed":true,"internalType":"address","name":"borrower","type":"address"},{"indexed":false,"internalType":"uint256","name":"amount","type":"uint256"}],"name":"EMIPaid","type":"event"},{"anonymous":false,"inputs":[{"indexed":true,"internalType":"address","name":"user","type":"address"},{"indexed":false,"internalType":"uint256","name":"amount","type":"uint256"}],"name":"EtherMortgaged","type":"event"},{"anonymous":false,"inputs":[{"indexed":true,"internalType":"address","name":"user","type":"address"},{"indexed":false,"internalType":"uint256","name":"amount","type":"uint256"}],"name":"EtherWithdrawn","type":"event"},{"anonymous":false,"inputs":[{"indexed":true,"internalType":"address","name":"investor","type":"address"},{"indexed":false,"internalType":"uint256","name":"amount","type":"uint256"}],"name":"InvestmentMade","type":"event"},{"anonymous":false,"inputs":[{"indexed":true,"internalType":"address","name":"previousOwner","type":"address"},{"indexed":true,"internalType":"address","name":"newOwner","type":"address"}],"name":"OwnershipTransferred","type":"event"},{"inputs":[{"internalType":"address","name":"userAddress","type":"address"},{"internalType":"uint256","name":"amount","type":"uint256"}],"name":"addUsdBalance","outputs":[],"stateMutability":"nonpayable","type":"function"},{"inputs":[],"name":"borrowerInterestRate","outputs":[{"internalType":"uint256","name":"","type":"uint256"}],"stateMutability":"view","type":"function"},{"inputs":[],"name":"commonWallet","outputs":[{"internalType":"address","name":"","type":"address"}],"stateMutability":"view","type":"function"},{"inputs":[],"name":"ethToUsd","outputs":[{"internalType":"uint256","name":"","type":"uint256"}],"stateMutability":"view","type":"function"},{"inputs":[{"internalType":"address","name":"userAddress","type":"address"}],"name":"getUserDetails","outputs":[{"internalType":"uint256","name":"usdBalance","type":"uint256"},{"internalType":"uint256","name":"mortgagedEth","type":"uint256"},{"internalType":"uint256","name":"lastPaymentTimestamp","type":"uint256"}],"stateMutability":"view","type":"function"},{"inputs":[],"name":"invest","outputs":[],"stateMutability":"payable","type":"function"},{"inputs":[],"name":"investmentWallet","outputs":[{"internalType":"address","name":"","type":"address"}],"stateMutability":"view","type":"function"},{"inputs":[{"internalType":"address","name":"","type":"address"}],"name":"investments","outputs":[{"internalType":"address","name":"investor","type":"address"},{"internalType":"uint256","name":"amount","type":"uint256"}],"stateMutability":"view","type":"function"},{"inputs":[],"name":"lenderInterestRate","outputs":[{"internalType":"uint256","name":"","type":"uint256"}],"stateMutability":"view","type":"function"},{"inputs":[],"name":"loanToValueRatio","outputs":[{"internalType":"uint256","name":"","type":"uint256"}],"stateMutability":"view","type":"function"},{"inputs":[],"name":"mortgageEther","outputs":[],"stateMutability":"payable","type":"function"},{"inputs":[],"name":"owner","outputs":[{"internalType":"address","name":"","type":"address"}],"stateMutability":"view","type":"function"},{"inputs":[{"internalType":"uint256","name":"amount","type":"uint256"}],"name":"payEMI","outputs":[],"stateMutability":"nonpayable","type":"function"},{"inputs":[],"name":"penaltyRate","outputs":[{"internalType":"uint256","name":"","type":"uint256"}],"stateMutability":"view","type":"function"},{"inputs":[],"name":"renounceOwnership","outputs":[],"stateMutability":"nonpayable","type":"function"},{"inputs":[{"internalType":"address","name":"newOwner","type":"address"}],"name":"transferOwnership","outputs":[],"stateMutability":"nonpayable","type":"function"},{"inputs":[{"internalType":"address","name":"","type":"address"}],"name":"users","outputs":[{"internalType":"uint256","name":"usdBalance","type":"uint256"},{"internalType":"uint256","name":"mortgagedEth","type":"uint256"},{"internalType":"uint256","name":"lastPaymentTimestamp","type":"uint256"}],"stateMutability":"view","type":"function"},{"inputs":[{"internalType":"uint256","name":"amount","type":"uint256"}],"name":"withdrawFunds","outputs":[],"stateMutability":"nonpayable","type":"function"}],"evm":{"bytecode":{"linkReferences":{},"object":"608060405234801561001057600080fd5b50604051610c4a380380610c4a83398101604081905261002f916100d5565b61003833610069565b600380546001600160a01b039384166001600160a01b03199182161790915560048054929093169116179055610108565b600080546001600160a01b038381166001600160a01b0319831681178455604051919092169283917f8be0079c531659141344cd1fd0a4f28419497f9722a3daafe3b4186f6b6457e09190a35050565b80516001600160a01b03811681146100d057600080fd5b919050565b600080604083850312156100e857600080fd5b6100f1836100b9565b91506100ff602084016100b9565b90509250929050565b610b33806101176000396000f3fe6080604052600436106101095760003560e01c8063a87430ba11610095578063cc3d967b11610064578063cc3d967b14610318578063d6b7494f1461016d578063e8b5e51f14610360578063ede80c5814610368578063f2fde38b1461037057600080fd5b8063a87430ba1461026c578063ab4766e8146102c2578063b6fa37bc146102d8578063c4579e72146102f857600080fd5b8063715018a6116100dc578063715018a614610182578063733706001461019757806378c40aea146101b75780638da5cb5b146101ef57806396b988621461020d57600080fd5b8063075d358a1461010e578063155dd5ee14610136578063157bf470146101585780636e2f203b1461016d575b600080fd5b34801561011a57600080fd5b50610123605081565b6040519081526020015b60405180910390f35b34801561014257600080fd5b50610156610151366004610a0e565b610390565b005b34801561016457600080fd5b50610123600681565b34801561017957600080fd5b50610123600781565b34801561018e57600080fd5b5061015661042a565b3480156101a357600080fd5b506101566101b2366004610a0e565b61043e565b3480156101c357600080fd5b506003546101d7906001600160a01b031681565b6040516001600160a01b03909116815260200161012d565b3480156101fb57600080fd5b506000546001600160a01b03166101d7565b34801561021957600080fd5b5061024d610228366004610a43565b600260205260009081526040902080546001909101546001600160a01b039091169082565b604080516001600160a01b03909316835260208301919091520161012d565b34801561027857600080fd5b506102a7610287366004610a43565b600160208190526000918252604090912080549181015460029091015483565b6040805193845260208401929092529082015260600161012d565b3480156102ce57600080fd5b50610123610fa081565b3480156102e457600080fd5b506004546101d7906001600160a01b031681565b34801561030457600080fd5b50610156610313366004610a5e565b610611565b34801561032457600080fd5b506102a7610333366004610a43565b6001600160a01b031660009081526001602081905260409091208054918101546002909101549192909190565b610156610642565b61015661074e565b34801561037c57600080fd5b5061015661038b366004610a43565b610891565b61039861090a565b478111156103ed5760405162461bcd60e51b815260206004820152601d60248201527f496e73756666696369656e7420636f6e74726163742062616c616e636500000060448201526064015b60405180910390fd5b600080546040516001600160a01b039091169183156108fc02918491818181858888f19350505050158015610426573d6000803e3d6000fd5b5050565b61043261090a565b61043c6000610964565b565b600081116104985760405162461bcd60e51b815260206004820152602160248201527f454d4920616d6f756e74206d7573742062652067726561746572207468616e206044820152600360fc1b60648201526084016103e4565b336000908152600160205260409020548111156104f75760405162461bcd60e51b815260206004820152601860248201527f496e73756666696369656e74205553442062616c616e6365000000000000000060448201526064016103e4565b6000610502826109b4565b33600090815260016020526040812080549293508492909190610526908490610a9e565b9091555050600080546040516001600160a01b039091169183156108fc02918491818181858888f19350505050158015610564573d6000803e3d6000fd5b50336000908152600160205260409020600201546105859062278d00610ab1565b42106105d757600061059983610fa06109f6565b6003546040519192506001600160a01b03169082156108fc029083906000818181858888f193505050501580156105d4573d6000803e3d6000fd5b50505b60405182815233907f02d00da62a666d159ac7383eb46211fbb2a4d3a76fcd713aea679a1bc9e462a3906020015b60405180910390a25050565b6001600160a01b03821660009081526001602052604081208054839290610639908490610ab1565b90915550505050565b600034116106a35760405162461bcd60e51b815260206004820152602860248201527f496e766573746d656e7420616d6f756e74206d75737420626520677265617465604482015267072207468616e20360c41b60648201526084016103e4565b33600081815260026020526040812080546001600160a01b0319169092178255600190910180543492906106d8908490610ab1565b90915550506004546040516001600160a01b03909116903480156108fc02916000818181858888f19350505050158015610716573d6000803e3d6000fd5b5060405134815233907f07146ef3ff2146eaf34fa4d392d4c56663333b682654b3123bf270f9ec529f319060200160405180910390a2565b600034116107ad5760405162461bcd60e51b815260206004820152602660248201527f4d6f72746761676520616d6f756e74206d75737420626520677265617465722060448201526507468616e20360d41b60648201526084016103e4565b60006107bb34610fa0610a02565b905060006107d560506107cf346064610a02565b906109f6565b336000908152600160205260408120805492935084929091906107f9908490610ab1565b90915550503360009081526001602081905260408220018054839290610820908490610ab1565b90915550506003546040516001600160a01b03909116903480156108fc02916000818181858888f1935050505015801561085e573d6000803e3d6000fd5b5060405134815233907f3b34c6cf525776d5f732260f37c3adf44f04895cc561b62cb62f1be31e6d48cb90602001610605565b61089961090a565b6001600160a01b0381166108fe5760405162461bcd60e51b815260206004820152602660248201527f4f776e61626c653a206e6577206f776e657220697320746865207a65726f206160448201526564647265737360d01b60648201526084016103e4565b61090781610964565b50565b6000546001600160a01b0316331461043c5760405162461bcd60e51b815260206004820181905260248201527f4f776e61626c653a2063616c6c6572206973206e6f7420746865206f776e657260448201526064016103e4565b600080546001600160a01b038381166001600160a01b0319831681178455604051919092169283917f8be0079c531659141344cd1fd0a4f28419497f9722a3daafe3b4186f6b6457e09190a35050565b3360009081526001602052604081206002015481906109d69062278d00610ab1565b4211156109f0576109ed60646107cf856007610a02565b90505b92915050565b60006109ed8284610ac4565b60006109ed8284610ae6565b600060208284031215610a2057600080fd5b5035919050565b80356001600160a01b0381168114610a3e57600080fd5b919050565b600060208284031215610a5557600080fd5b6109ed82610a27565b60008060408385031215610a7157600080fd5b610a7a83610a27565b946020939093013593505050565b634e487b7160e01b600052601160045260246000fd5b818103818111156109f0576109f0610a88565b808201808211156109f0576109f0610a88565b600082610ae157634e487b7160e01b600052601260045260246000fd5b500490565b80820281158282048414176109f0576109f0610a8856fea2646970667358221220082d02df6c596fe60013ef0fff6751a56b9e9140b7982e9dd1a7027149132fcf64736f6c63430008110033","opcodes":"PUSH1 0x80 PUSH1 0x40 MSTORE CALLVALUE DUP1 ISZERO PUSH2 0x10 JUMPI PUSH1 0x0 DUP1 REVERT JUMPDEST POP PUSH1 0x40 MLOAD PUSH2 0xC4A CODESIZE SUB DUP1 PUSH2 0xC4A DUP4 CODECOPY DUP2 ADD PUSH1 0x40 DUP2 SWAP1 MSTORE PUSH2 0x2F SWAP2 PUSH2 0xD5 JUMP JUMPDEST PUSH2 0x38 CALLER PUSH2 0x69 JUMP JUMPDEST PUSH1 0x3 DUP1 SLOAD PUSH1 0x1 PUSH1 0x1 PUSH1 0xA0 SHL SUB SWAP4 DUP5 AND PUSH1 0x1 PUSH1 0x1 PUSH1 0xA0 SHL SUB NOT SWAP2 DUP3 AND OR SWAP1 SWAP2 SSTORE PUSH1 0x4 DUP1 SLOAD SWAP3 SWAP1 SWAP4 AND SWAP2 AND OR SWAP1 SSTORE PUSH2 0x108 JUMP JUMPDEST PUSH1 0x0 DUP1 SLOAD PUSH1 0x1 PUSH1 0x1 PUSH1 0xA0 SHL SUB DUP4 DUP2 AND PUSH1 0x1 PUSH1 0x1 PUSH1 0xA0 SHL SUB NOT DUP4 AND DUP2 OR DUP5 SSTORE PUSH1 0x40 MLOAD SWAP2 SWAP1 SWAP3 AND SWAP3 DUP4 SWAP2 PUSH32 0x8BE0079C531659141344CD1FD0A4F28419497F9722A3DAAFE3B4186F6B6457E0 SWAP2 SWAP1 LOG3 POP POP JUMP JUMPDEST DUP1 MLOAD PUSH1 0x1 PUSH1 0x1 PUSH1 0xA0 SHL SUB DUP2 AND DUP2 EQ PUSH2 0xD0 JUMPI PUSH1 0x0 DUP1 REVERT JUMPDEST SWAP2 SWAP1 POP JUMP JUMPDEST PUSH1 0x0 DUP1 PUSH1 0x40 DUP4 DUP6 SUB SLT ISZERO PUSH2 0xE8 JUMPI PUSH1 0x0 DUP1 REVERT JUMPDEST PUSH2 0xF1 DUP4 PUSH2 0xB9 JUMP JUMPDEST SWAP2 POP PUSH2 0xFF PUSH1 0x20 DUP5 ADD PUSH2 0xB9 JUMP JUMPDEST SWAP1 POP SWAP3 POP SWAP3 SWAP1 POP JUMP JUMPDEST PUSH2 0xB33 DUP1 PUSH2 0x117 PUSH1 0x0 CODECOPY PUSH1 0x0 RETURN INVALID PUSH1 0x80 PUSH1 0x40 MSTORE PUSH1 0x4 CALLDATASIZE LT PUSH2 0x109 JUMPI PUSH1 0x0 CALLDATALOAD PUSH1 0xE0 SHR DUP1 PUSH4 0xA87430BA GT PUSH2 0x95 JUMPI DUP1 PUSH4 0xCC3D967B GT PUSH2 0x64 JUMPI DUP1 PUSH4 0xCC3D967B EQ PUSH2 0x318 JUMPI DUP1 PUSH4 0xD6B7494F EQ PUSH2 0x16D JUMPI DUP1 PUSH4 0xE8B5E51F EQ PUSH2 0x360 JUMPI DUP1 PUSH4 0xEDE80C58 EQ PUSH2 0x368 JUMPI DUP1 PUSH4 0xF2FDE38B EQ PUSH2 0x370 JUMPI PUSH1 0x0 DUP1 REVERT JUMPDEST DUP1 PUSH4 0xA87430BA EQ PUSH2 0x26C JUMPI DUP1 PUSH4 0xAB4766E8 EQ PUSH2 0x2C2 JUMPI DUP1 PUSH4 0xB6FA37BC EQ PUSH2 0x2D8 JUMPI DUP1 PUSH4 0xC4579E72 EQ PUSH2 0x2F8 JUMPI PUSH1 0x0 DUP1 REVERT JUMPDEST DUP1 PUSH4 0x715018A6 GT PUSH2 0xDC JUMPI DUP1 PUSH4 0x715018A6 EQ PUSH2 0x182 JUMPI DUP1 PUSH4 0x73370600 EQ PUSH2 0x197 JUMPI DUP1 PUSH4 0x78C40AEA EQ PUSH2 0x1B7 JUMPI DUP1 PUSH4 0x8DA5CB5B EQ PUSH2 0x1EF JUMPI DUP1 PUSH4 0x96B98862 EQ PUSH2 0x20D JUMPI PUSH1 0x0 DUP1 REVERT JUMPDEST DUP1 PUSH4 0x75D358A EQ PUSH2 0x10E JUMPI DUP1 PUSH4 0x155DD5EE EQ PUSH2 0x136 JUMPI DUP1 PUSH4 0x157BF470 EQ PUSH2 0x158 JUMPI DUP1 PUSH4 0x6E2F203B EQ PUSH2 0x16D JUMPI JUMPDEST PUSH1 0x0 DUP1 REVERT JUMPDEST CALLVALUE DUP1 ISZERO PUSH2 0x11A JUMPI PUSH1 0x0 DUP1 REVERT JUMPDEST POP PUSH2 0x123 PUSH1 0x50 DUP2 JUMP JUMPDEST PUSH1 0x40 MLOAD SWAP1 DUP2 MSTORE PUSH1 0x20 ADD JUMPDEST PUSH1 0x40 MLOAD DUP1 SWAP2 SUB SWAP1 RETURN JUMPDEST CALLVALUE DUP1 ISZERO PUSH2 0x142 JUMPI PUSH1 0x0 DUP1 REVERT JUMPDEST POP PUSH2 0x156 PUSH2 0x151 CALLDATASIZE PUSH1 0x4 PUSH2 0xA0E JUMP JUMPDEST PUSH2 0x390 JUMP JUMPDEST STOP JUMPDEST CALLVALUE DUP1 ISZERO PUSH2 0x164 JUMPI PUSH1 0x0 DUP1 REVERT JUMPDEST POP PUSH2 0x123 PUSH1 0x6 DUP2 JUMP JUMPDEST CALLVALUE DUP1 ISZERO PUSH2 0x179 JUMPI PUSH1 0x0 DUP1 REVERT JUMPDEST POP PUSH2 0x123 PUSH1 0x7 DUP2 JUMP JUMPDEST CALLVALUE DUP1 ISZERO PUSH2 0x18E JUMPI PUSH1 0x0 DUP1 REVERT JUMPDEST POP PUSH2 0x156 PUSH2 0x42A JUMP JUMPDEST CALLVALUE DUP1 ISZERO PUSH2 0x1A3 JUMPI PUSH1 0x0 DUP1 REVERT JUMPDEST POP PUSH2 0x156 PUSH2 0x1B2 CALLDATASIZE PUSH1 0x4 PUSH2 0xA0E JUMP JUMPDEST PUSH2 0x43E JUMP JUMPDEST CALLVALUE DUP1 ISZERO PUSH2 0x1C3 JUMPI PUSH1 0x0 DUP1 REVERT JUMPDEST POP PUSH1 0x3 SLOAD PUSH2 0x1D7 SWAP1 PUSH1 0x1 PUSH1 0x1 PUSH1 0xA0 SHL SUB AND DUP2 JUMP JUMPDEST PUSH1 0x40 MLOAD PUSH1 0x1 PUSH1 0x1 PUSH1 0xA0 SHL SUB SWAP1 SWAP2 AND DUP2 MSTORE PUSH1 0x20 ADD PUSH2 0x12D JUMP JUMPDEST CALLVALUE DUP1 ISZERO PUSH2 0x1FB JUMPI PUSH1 0x0 DUP1 REVERT JUMPDEST POP PUSH1 0x0 SLOAD PUSH1 0x1 PUSH1 0x1 PUSH1 0xA0 SHL SUB AND PUSH2 0x1D7 JUMP JUMPDEST CALLVALUE DUP1 ISZERO PUSH2 0x219 JUMPI PUSH1 0x0 DUP1 REVERT JUMPDEST POP PUSH2 0x24D PUSH2 0x228 CALLDATASIZE PUSH1 0x4 PUSH2 0xA43 JUMP JUMPDEST PUSH1 0x2 PUSH1 0x20 MSTORE PUSH1 0x0 SWAP1 DUP2 MSTORE PUSH1 0x40 SWAP1 KECCAK256 DUP1 SLOAD PUSH1 0x1 SWAP1 SWAP2 ADD SLOAD PUSH1 0x1 PUSH1 0x1 PUSH1 0xA0 SHL SUB SWAP1 SWAP2 AND SWAP1 DUP3 JUMP JUMPDEST PUSH1 0x40 DUP1 MLOAD PUSH1 0x1 PUSH1 0x1 PUSH1 0xA0 SHL SUB SWAP1 SWAP4 AND DUP4 MSTORE PUSH1 0x20 DUP4 ADD SWAP2 SWAP1 SWAP2 MSTORE ADD PUSH2 0x12D JUMP JUMPDEST CALLVALUE DUP1 ISZERO PUSH2 0x278 JUMPI PUSH1 0x0 DUP1 REVERT JUMPDEST POP PUSH2 0x2A7 PUSH2 0x287 CALLDATASIZE PUSH1 0x4 PUSH2 0xA43 JUMP JUMPDEST PUSH1 0x1 PUSH1 0x20 DUP2 SWAP1 MSTORE PUSH1 0x0 SWAP2 DUP3 MSTORE PUSH1 0x40 SWAP1 SWAP2 KECCAK256 DUP1 SLOAD SWAP2 DUP2 ADD SLOAD PUSH1 0x2 SWAP1 SWAP2 ADD SLOAD DUP4 JUMP JUMPDEST PUSH1 0x40 DUP1 MLOAD SWAP4 DUP5 MSTORE PUSH1 0x20 DUP5 ADD SWAP3 SWAP1 SWAP3 MSTORE SWAP1 DUP3 ADD MSTORE PUSH1 0x60 ADD PUSH2 0x12D JUMP JUMPDEST CALLVALUE DUP1 ISZERO PUSH2 0x2CE JUMPI PUSH1 0x0 DUP1 REVERT JUMPDEST POP PUSH2 0x123 PUSH2 0xFA0 DUP2 JUMP JUMPDEST CALLVALUE DUP1 ISZERO PUSH2 0x2E4 JUMPI PUSH1 0x0 DUP1 REVERT JUMPDEST POP PUSH1 0x4 SLOAD PUSH2 0x1D7 SWAP1 PUSH1 0x1 PUSH1 0x1 PUSH1 0xA0 SHL SUB AND DUP2 JUMP JUMPDEST CALLVALUE DUP1 ISZERO PUSH2 0x304 JUMPI PUSH1 0x0 DUP1 REVERT JUMPDEST POP PUSH2 0x156 PUSH2 0x313 CALLDATASIZE PUSH1 0x4 PUSH2 0xA5E JUMP JUMPDEST PUSH2 0x611 JUMP JUMPDEST CALLVALUE DUP1 ISZERO PUSH2 0x324 JUMPI PUSH1 0x0 DUP1 REVERT JUMPDEST POP PUSH2 0x2A7 PUSH2 0x333 CALLDATASIZE PUSH1 0x4 PUSH2 0xA43 JUMP JUMPDEST PUSH1 0x1 PUSH1 0x1 PUSH1 0xA0 SHL SUB AND PUSH1 0x0 SWAP1 DUP2 MSTORE PUSH1 0x1 PUSH1 0x20 DUP2 SWAP1 MSTORE PUSH1 0x40 SWAP1 SWAP2 KECCAK256 DUP1 SLOAD SWAP2 DUP2 ADD SLOAD PUSH1 0x2 SWAP1 SWAP2 ADD SLOAD SWAP2 SWAP3 SWAP1 SWAP2 SWAP1 JUMP JUMPDEST PUSH2 0x156 PUSH2 0x642 JUMP JUMPDEST PUSH2 0x156 PUSH2 0x74E JUMP JUMPDEST CALLVALUE DUP1 ISZERO PUSH2 0x37C JUMPI PUSH1 0x0 DUP1 REVERT JUMPDEST POP PUSH2 0x156 PUSH2 0x38B CALLDATASIZE PUSH1 0x4 PUSH2 0xA43 JUMP JUMPDEST PUSH2 0x891 JUMP JUMPDEST PUSH2 0x398 PUSH2 0x90A JUMP JUMPDEST SELFBALANCE DUP2 GT ISZERO PUSH2 0x3ED JUMPI PUSH1 0x40 MLOAD PUSH3 0x461BCD PUSH1 0xE5 SHL DUP2 MSTORE PUSH1 0x20 PUSH1 0x4 DUP3 ADD MSTORE PUSH1 0x1D PUSH1 0x24 DUP3 ADD MSTORE PUSH32 0x496E73756666696369656E7420636F6E74726163742062616C616E6365000000 PUSH1 0x44 DUP3 ADD MSTORE PUSH1 0x64 ADD JUMPDEST PUSH1 0x40 MLOAD DUP1 SWAP2 SUB SWAP1 REVERT JUMPDEST PUSH1 0x0 DUP1 SLOAD PUSH1 0x40 MLOAD PUSH1 0x1 PUSH1 0x1 PUSH1 0xA0 SHL SUB SWAP1 SWAP2 AND SWAP2 DUP4 ISZERO PUSH2 0x8FC MUL SWAP2 DUP5 SWAP2 DUP2 DUP2 DUP2 DUP6 DUP9 DUP9 CALL SWAP4 POP POP POP POP ISZERO DUP1 ISZERO PUSH2 0x426 JUMPI RETURNDATASIZE PUSH1 0x0 DUP1 RETURNDATACOPY RETURNDATASIZE PUSH1 0x0 REVERT JUMPDEST POP POP JUMP JUMPDEST PUSH2 0x432 PUSH2 0x90A JUMP JUMPDEST PUSH2 0x43C PUSH1 0x0 PUSH2 0x964 JUMP JUMPDEST JUMP JUMPDEST PUSH1 0x0 DUP2 GT PUSH2 0x498 JUMPI PUSH1 0x40 MLOAD PUSH3 0x461BCD PUSH1 0xE5 SHL DUP2 MSTORE PUSH1 0x20 PUSH1 0x4 DUP3 ADD MSTORE PUSH1 0x21 PUSH1 0x24 DUP3 ADD MSTORE PUSH32 0x454D4920616D6F756E74206D7573742062652067726561746572207468616E20 PUSH1 0x44 DUP3 ADD MSTORE PUSH1 0x3 PUSH1 0xFC SHL PUSH1 0x64 DUP3 ADD MSTORE PUSH1 0x84 ADD PUSH2 0x3E4 JUMP JUMPDEST CALLER PUSH1 0x0 SWAP1 DUP2 MSTORE PUSH1 0x1 PUSH1 0x20 MSTORE PUSH1 0x40 SWAP1 KECCAK256 SLOAD DUP2 GT ISZERO PUSH2 0x4F7 JUMPI PUSH1 0x40 MLOAD PUSH3 0x461BCD PUSH1 0xE5 SHL DUP2 MSTORE PUSH1 0x20 PUSH1 0x4 DUP3 ADD MSTORE PUSH1 0x18 PUSH1 0x24 DUP3 ADD MSTORE PUSH32 0x496E73756666696369656E74205553442062616C616E63650000000000000000 PUSH1 0x44 DUP3 ADD MSTORE PUSH1 0x64 ADD PUSH2 0x3E4 JUMP JUMPDEST PUSH1 0x0 PUSH2 0x502 DUP3 PUSH2 0x9B4 JUMP JUMPDEST CALLER PUSH1 0x0 SWAP1 DUP2 MSTORE PUSH1 0x1 PUSH1 0x20 MSTORE PUSH1 0x40 DUP2 KECCAK256 DUP1 SLOAD SWAP3 SWAP4 POP DUP5 SWAP3 SWAP1 SWAP2 SWAP1 PUSH2 0x526 SWAP1 DUP5 SWAP1 PUSH2 0xA9E JUMP JUMPDEST SWAP1 SWAP2 SSTORE POP POP PUSH1 0x0 DUP1 SLOAD PUSH1 0x40 MLOAD PUSH1 0x1 PUSH1 0x1 PUSH1 0xA0 SHL SUB SWAP1 SWAP2 AND SWAP2 DUP4 ISZERO PUSH2 0x8FC MUL SWAP2 DUP5 SWAP2 DUP2 DUP2 DUP2 DUP6 DUP9 DUP9 CALL SWAP4 POP POP POP POP ISZERO DUP1 ISZERO PUSH2 0x564 JUMPI RETURNDATASIZE PUSH1 0x0 DUP1 RETURNDATACOPY RETURNDATASIZE PUSH1 0x0 REVERT JUMPDEST POP CALLER PUSH1 0x0 SWAP1 DUP2 MSTORE PUSH1 0x1 PUSH1 0x20 MSTORE PUSH1 0x40 SWAP1 KECCAK256 PUSH1 0x2 ADD SLOAD PUSH2 0x585 SWAP1 PUSH3 0x278D00 PUSH2 0xAB1 JUMP JUMPDEST TIMESTAMP LT PUSH2 0x5D7 JUMPI PUSH1 0x0 PUSH2 0x599 DUP4 PUSH2 0xFA0 PUSH2 0x9F6 JUMP JUMPDEST PUSH1 0x3 SLOAD PUSH1 0x40 MLOAD SWAP2 SWAP3 POP PUSH1 0x1 PUSH1 0x1 PUSH1 0xA0 SHL SUB AND SWAP1 DUP3 ISZERO PUSH2 0x8FC MUL SWAP1 DUP4 SWAP1 PUSH1 0x0 DUP2 DUP2 DUP2 DUP6 DUP9 DUP9 CALL SWAP4 POP POP POP POP ISZERO DUP1 ISZERO PUSH2 0x5D4 JUMPI RETURNDATASIZE PUSH1 0x0 DUP1 RETURNDATACOPY RETURNDATASIZE PUSH1 0x0 REVERT JUMPDEST POP POP JUMPDEST PUSH1 0x40 MLOAD DUP3 DUP2 MSTORE CALLER SWAP1 PUSH32 0x2D00DA62A666D159AC7383EB46211FBB2A4D3A76FCD713AEA679A1BC9E462A3 SWAP1 PUSH1 0x20 ADD JUMPDEST PUSH1 0x40 MLOAD DUP1 SWAP2 SUB SWAP1 LOG2 POP POP JUMP JUMPDEST PUSH1 0x1 PUSH1 0x1 PUSH1 0xA0 SHL SUB DUP3 AND PUSH1 0x0 SWAP1 DUP2 MSTORE PUSH1 0x1 PUSH1 0x20 MSTORE PUSH1 0x40 DUP2 KECCAK256 DUP1 SLOAD DUP4 SWAP3 SWAP1 PUSH2 0x639 SWAP1 DUP5 SWAP1 PUSH2 0xAB1 JUMP JUMPDEST SWAP1 SWAP2 SSTORE POP POP POP POP JUMP JUMPDEST PUSH1 0x0 CALLVALUE GT PUSH2 0x6A3 JUMPI PUSH1 0x40 MLOAD PUSH3 0x461BCD PUSH1 0xE5 SHL DUP2 MSTORE PUSH1 0x20 PUSH1 0x4 DUP3 ADD MSTORE PUSH1 0x28 PUSH1 0x24 DUP3 ADD MSTORE PUSH32 0x496E766573746D656E7420616D6F756E74206D75737420626520677265617465 PUSH1 0x44 DUP3 ADD MSTORE PUSH8 0x72207468616E203 PUSH1 0xC4 SHL PUSH1 0x64 DUP3 ADD MSTORE PUSH1 0x84 ADD PUSH2 0x3E4 JUMP JUMPDEST CALLER PUSH1 0x0 DUP2 DUP2 MSTORE PUSH1 0x2 PUSH1 0x20 MSTORE PUSH1 0x40 DUP2 KECCAK256 DUP1 SLOAD PUSH1 0x1 PUSH1 0x1 PUSH1 0xA0 SHL SUB NOT AND SWAP1 SWAP3 OR DUP3 SSTORE PUSH1 0x1 SWAP1 SWAP2 ADD DUP1 SLOAD CALLVALUE SWAP3 SWAP1 PUSH2 0x6D8 SWAP1 DUP5 SWAP1 PUSH2 0xAB1 JUMP JUMPDEST SWAP1 SWAP2 SSTORE POP POP PUSH1 0x4 SLOAD PUSH1 0x40 MLOAD PUSH1 0x1 PUSH1 0x1 PUSH1 0xA0 SHL SUB SWAP1 SWAP2 AND SWAP1 CALLVALUE DUP1 ISZERO PUSH2 0x8FC MUL SWAP2 PUSH1 0x0 DUP2 DUP2 DUP2 DUP6 DUP9 DUP9 CALL SWAP4 POP POP POP POP ISZERO DUP1 ISZERO PUSH2 0x716 JUMPI RETURNDATASIZE PUSH1 0x0 DUP1 RETURNDATACOPY RETURNDATASIZE PUSH1 0x0 REVERT JUMPDEST POP PUSH1 0x40 MLOAD CALLVALUE DUP2 MSTORE CALLER SWAP1 PUSH32 0x7146EF3FF2146EAF34FA4D392D4C56663333B682654B3123BF270F9EC529F31 SWAP1 PUSH1 0x20 ADD PUSH1 0x40 MLOAD DUP1 SWAP2 SUB SWAP1 LOG2 JUMP JUMPDEST PUSH1 0x0 CALLVALUE GT PUSH2 0x7AD JUMPI PUSH1 0x40 MLOAD PUSH3 0x461BCD PUSH1 0xE5 SHL DUP2 MSTORE PUSH1 0x20 PUSH1 0x4 DUP3 ADD MSTORE PUSH1 0x26 PUSH1 0x24 DUP3 ADD MSTORE PUSH32 0x4D6F72746761676520616D6F756E74206D757374206265206772656174657220 PUSH1 0x44 DUP3 ADD MSTORE PUSH6 0x7468616E203 PUSH1 0xD4 SHL PUSH1 0x64 DUP3 ADD MSTORE PUSH1 0x84 ADD PUSH2 0x3E4 JUMP JUMPDEST PUSH1 0x0 PUSH2 0x7BB CALLVALUE PUSH2 0xFA0 PUSH2 0xA02 JUMP JUMPDEST SWAP1 POP PUSH1 0x0 PUSH2 0x7D5 PUSH1 0x50 PUSH2 0x7CF CALLVALUE PUSH1 0x64 PUSH2 0xA02 JUMP JUMPDEST SWAP1 PUSH2 0x9F6 JUMP JUMPDEST CALLER PUSH1 0x0 SWAP1 DUP2 MSTORE PUSH1 0x1 PUSH1 0x20 MSTORE PUSH1 0x40 DUP2 KECCAK256 DUP1 SLOAD SWAP3 SWAP4 POP DUP5 SWAP3 SWAP1 SWAP2 SWAP1 PUSH2 0x7F9 SWAP1 DUP5 SWAP1 PUSH2 0xAB1 JUMP JUMPDEST SWAP1 SWAP2 SSTORE POP POP CALLER PUSH1 0x0 SWAP1 DUP2 MSTORE PUSH1 0x1 PUSH1 0x20 DUP2 SWAP1 MSTORE PUSH1 0x40 DUP3 KECCAK256 ADD DUP1 SLOAD DUP4 SWAP3 SWAP1 PUSH2 0x820 SWAP1 DUP5 SWAP1 PUSH2 0xAB1 JUMP JUMPDEST SWAP1 SWAP2 SSTORE POP POP PUSH1 0x3 SLOAD PUSH1 0x40 MLOAD PUSH1 0x1 PUSH1 0x1 PUSH1 0xA0 SHL SUB SWAP1 SWAP2 AND SWAP1 CALLVALUE DUP1 ISZERO PUSH2 0x8FC MUL SWAP2 PUSH1 0x0 DUP2 DUP2 DUP2 DUP6 DUP9 DUP9 CALL SWAP4 POP POP POP POP ISZERO DUP1 ISZERO PUSH2 0x85E JUMPI RETURNDATASIZE PUSH1 0x0 DUP1 RETURNDATACOPY RETURNDATASIZE PUSH1 0x0 REVERT JUMPDEST POP PUSH1 0x40 MLOAD CALLVALUE DUP2 MSTORE CALLER SWAP1 PUSH32 0x3B34C6CF525776D5F732260F37C3ADF44F04895CC561B62CB62F1BE31E6D48CB SWAP1 PUSH1 0x20 ADD PUSH2 0x605 JUMP JUMPDEST PUSH2 0x899 PUSH2 0x90A JUMP JUMPDEST PUSH1 0x1 PUSH1 0x1 PUSH1 0xA0 SHL SUB DUP2 AND PUSH2 0x8FE JUMPI PUSH1 0x40 MLOAD PUSH3 0x461BCD PUSH1 0xE5 SHL DUP2 MSTORE PUSH1 0x20 PUSH1 0x4 DUP3 ADD MSTORE PUSH1 0x26 PUSH1 0x24 DUP3 ADD MSTORE PUSH32 0x4F776E61626C653A206E6577206F776E657220697320746865207A65726F2061 PUSH1 0x44 DUP3 ADD MSTORE PUSH6 0x646472657373 PUSH1 0xD0 SHL PUSH1 0x64 DUP3 ADD MSTORE PUSH1 0x84 ADD PUSH2 0x3E4 JUMP JUMPDEST PUSH2 0x907 DUP2 PUSH2 0x964 JUMP JUMPDEST POP JUMP JUMPDEST PUSH1 0x0 SLOAD PUSH1 0x1 PUSH1 0x1 PUSH1 0xA0 SHL SUB AND CALLER EQ PUSH2 0x43C JUMPI PUSH1 0x40 MLOAD PUSH3 0x461BCD PUSH1 0xE5 SHL DUP2 MSTORE PUSH1 0x20 PUSH1 0x4 DUP3 ADD DUP2 SWAP1 MSTORE PUSH1 0x24 DUP3 ADD MSTORE PUSH32 0x4F776E61626C653A2063616C6C6572206973206E6F7420746865206F776E6572 PUSH1 0x44 DUP3 ADD MSTORE PUSH1 0x64 ADD PUSH2 0x3E4 JUMP JUMPDEST PUSH1 0x0 DUP1 SLOAD PUSH1 0x1 PUSH1 0x1 PUSH1 0xA0 SHL SUB DUP4 DUP2 AND PUSH1 0x1 PUSH1 0x1 PUSH1 0xA0 SHL SUB NOT DUP4 AND DUP2 OR DUP5 SSTORE PUSH1 0x40 MLOAD SWAP2 SWAP1 SWAP3 AND SWAP3 DUP4 SWAP2 PUSH32 0x8BE0079C531659141344CD1FD0A4F28419497F9722A3DAAFE3B4186F6B6457E0 SWAP2 SWAP1 LOG3 POP POP JUMP JUMPDEST CALLER PUSH1 0x0 SWAP1 DUP2 MSTORE PUSH1 0x1 PUSH1 0x20 MSTORE PUSH1 0x40 DUP2 KECCAK256 PUSH1 0x2 ADD SLOAD DUP2 SWAP1 PUSH2 0x9D6 SWAP1 PUSH3 0x278D00 PUSH2 0xAB1 JUMP JUMPDEST TIMESTAMP GT ISZERO PUSH2 0x9F0 JUMPI PUSH2 0x9ED PUSH1 0x64 PUSH2 0x7CF DUP6 PUSH1 0x7 PUSH2 0xA02 JUMP JUMPDEST SWAP1 POP JUMPDEST SWAP3 SWAP2 POP POP JUMP JUMPDEST PUSH1 0x0 PUSH2 0x9ED DUP3 DUP5 PUSH2 0xAC4 JUMP JUMPDEST PUSH1 0x0 PUSH2 0x9ED DUP3 DUP5 PUSH2 0xAE6 JUMP JUMPDEST PUSH1 0x0 PUSH1 0x20 DUP3 DUP5 SUB SLT ISZERO PUSH2 0xA20 JUMPI PUSH1 0x0 DUP1 REVERT JUMPDEST POP CALLDATALOAD SWAP2 SWAP1 POP JUMP JUMPDEST DUP1 CALLDATALOAD PUSH1 0x1 PUSH1 0x1 PUSH1 0xA0 SHL SUB DUP2 AND DUP2 EQ PUSH2 0xA3E JUMPI PUSH1 0x0 DUP1 REVERT JUMPDEST SWAP2 SWAP1 POP JUMP JUMPDEST PUSH1 0x0 PUSH1 0x20 DUP3 DUP5 SUB SLT ISZERO PUSH2 0xA55 JUMPI PUSH1 0x0 DUP1 REVERT JUMPDEST PUSH2 0x9ED DUP3 PUSH2 0xA27 JUMP JUMPDEST PUSH1 0x0 DUP1 PUSH1 0x40 DUP4 DUP6 SUB SLT ISZERO PUSH2 0xA71 JUMPI PUSH1 0x0 DUP1 REVERT JUMPDEST PUSH2 0xA7A DUP4 PUSH2 0xA27 JUMP JUMPDEST SWAP5 PUSH1 0x20 SWAP4 SWAP1 SWAP4 ADD CALLDATALOAD SWAP4 POP POP POP JUMP JUMPDEST PUSH4 0x4E487B71 PUSH1 0xE0 SHL PUSH1 0x0 MSTORE PUSH1 0x11 PUSH1 0x4 MSTORE PUSH1 0x24 PUSH1 0x0 REVERT JUMPDEST DUP2 DUP2 SUB DUP2 DUP2 GT ISZERO PUSH2 0x9F0 JUMPI PUSH2 0x9F0 PUSH2 0xA88 JUMP JUMPDEST DUP1 DUP3 ADD DUP1 DUP3 GT ISZERO PUSH2 0x9F0 JUMPI PUSH2 0x9F0 PUSH2 0xA88 JUMP JUMPDEST PUSH1 0x0 DUP3 PUSH2 0xAE1 JUMPI PUSH4 0x4E487B71 PUSH1 0xE0 SHL PUSH1 0x0 MSTORE PUSH1 0x12 PUSH1 0x4 MSTORE PUSH1 0x24 PUSH1 0x0 REVERT JUMPDEST POP DIV SWAP1 JUMP JUMPDEST DUP1 DUP3 MUL DUP2 ISZERO DUP3 DUP3 DIV DUP5 EQ OR PUSH2 0x9F0 JUMPI PUSH2 0x9F0 PUSH2 0xA88 JUMP INVALID LOG2 PUSH5 0x6970667358 0x22 SLT KECCAK256 ADDMOD 0x2D MUL 0xDF PUSH13 0x596FE60013EF0FFF6751A56B9E SWAP2 BLOCKHASH 0xB7 SWAP9 0x2E SWAP14 0xD1 0xA7 MUL PUSH18 0x49132FCF64736F6C63430008110033000000 "},"methodIdentifiers":{"addUsdBalance(address,uint256)":"c4579e72","borrowerInterestRate()":"6e2f203b","commonWallet()":"78c40aea","ethToUsd()":"ab4766e8","getUserDetails(address)":"cc3d967b","invest()":"e8b5e51f","investmentWallet()":"b6fa37bc","investments(address)":"96b98862","lenderInterestRate()":"157bf470","loanToValueRatio()":"075d358a","mortgageEther()":"ede80c58","owner()":"8da5cb5b","payEMI(uint256)":"73370600","penaltyRate()":"d6b7494f","renounceOwnership()":"715018a6","transferOwnership(address)":"f2fde38b","users(address)":"a87430ba","withdrawFunds(uint256)":"155dd5ee"}}}}}