{
  "_format": "hh-sol-artifact-1",
  "contractName": "DeFi",
  "sourceName": "contracts/CroudFunding.sol",
  "abi": [
    {
      "inputs": [
        {
          "internalType": "address",
          "name": "_commonWallet",
          "type": "address"
        },
        {
          "internalType": "address",
          "name": "_investmentWallet",
          "type": "address"
        }
      ],
      "stateMutability": "nonpayable",
      "type": "constructor"
    },
    {
      "anonymous": false,
      "inputs": [
        {
          "indexed": true,
          "internalType": "address",
          "name": "borrower",
          "type": "address"
        },
        {
          "indexed": false,
          "internalType": "uint256",
          "name": "amount",
          "type": "uint256"
        }
      ],
      "name": "EMIPaid",
      "type": "event"
    },
    {
      "anonymous": false,
      "inputs": [
        {
          "indexed": true,
          "internalType": "address",
          "name": "user",
          "type": "address"
        },
        {
          "indexed": false,
          "internalType": "uint256",
          "name": "amount",
          "type": "uint256"
        }
      ],
      "name": "EtherMortgaged",
      "type": "event"
    },
    {
      "anonymous": false,
      "inputs": [
        {
          "indexed": true,
          "internalType": "address",
          "name": "user",
          "type": "address"
        },
        {
          "indexed": false,
          "internalType": "uint256",
          "name": "amount",
          "type": "uint256"
        }
      ],
      "name": "EtherWithdrawn",
      "type": "event"
    },
    {
      "anonymous": false,
      "inputs": [
        {
          "indexed": true,
          "internalType": "address",
          "name": "investor",
          "type": "address"
        },
        {
          "indexed": false,
          "internalType": "uint256",
          "name": "amount",
          "type": "uint256"
        }
      ],
      "name": "InvestmentMade",
      "type": "event"
    },
    {
      "anonymous": false,
      "inputs": [
        {
          "indexed": true,
          "internalType": "address",
          "name": "previousOwner",
          "type": "address"
        },
        {
          "indexed": true,
          "internalType": "address",
          "name": "newOwner",
          "type": "address"
        }
      ],
      "name": "OwnershipTransferred",
      "type": "event"
    },
    {
      "inputs": [
        {
          "internalType": "address",
          "name": "userAddress",
          "type": "address"
        },
        {
          "internalType": "uint256",
          "name": "amount",
          "type": "uint256"
        }
      ],
      "name": "addUsdBalance",
      "outputs": [],
      "stateMutability": "nonpayable",
      "type": "function"
    },
    {
      "inputs": [],
      "name": "borrowerInterestRate",
      "outputs": [
        {
          "internalType": "uint256",
          "name": "",
          "type": "uint256"
        }
      ],
      "stateMutability": "view",
      "type": "function"
    },
    {
      "inputs": [],
      "name": "commonWallet",
      "outputs": [
        {
          "internalType": "address",
          "name": "",
          "type": "address"
        }
      ],
      "stateMutability": "view",
      "type": "function"
    },
    {
      "inputs": [],
      "name": "ethToUsd",
      "outputs": [
        {
          "internalType": "uint256",
          "name": "",
          "type": "uint256"
        }
      ],
      "stateMutability": "view",
      "type": "function"
    },
    {
      "inputs": [
        {
          "internalType": "address",
          "name": "userAddress",
          "type": "address"
        }
      ],
      "name": "getUserDetails",
      "outputs": [
        {
          "internalType": "uint256",
          "name": "usdBalance",
          "type": "uint256"
        },
        {
          "internalType": "uint256",
          "name": "mortgagedEth",
          "type": "uint256"
        },
        {
          "internalType": "uint256",
          "name": "lastPaymentTimestamp",
          "type": "uint256"
        }
      ],
      "stateMutability": "view",
      "type": "function"
    },
    {
      "inputs": [],
      "name": "invest",
      "outputs": [],
      "stateMutability": "payable",
      "type": "function"
    },
    {
      "inputs": [],
      "name": "investmentWallet",
      "outputs": [
        {
          "internalType": "address",
          "name": "",
          "type": "address"
        }
      ],
      "stateMutability": "view",
      "type": "function"
    },
    {
      "inputs": [
        {
          "internalType": "address",
          "name": "",
          "type": "address"
        }
      ],
      "name": "investments",
      "outputs": [
        {
          "internalType": "address",
          "name": "investor",
          "type": "address"
        },
        {
          "internalType": "uint256",
          "name": "amount",
          "type": "uint256"
        }
      ],
      "stateMutability": "view",
      "type": "function"
    },
    {
      "inputs": [],
      "name": "lenderInterestRate",
      "outputs": [
        {
          "internalType": "uint256",
          "name": "",
          "type": "uint256"
        }
      ],
      "stateMutability": "view",
      "type": "function"
    },
    {
      "inputs": [],
      "name": "loanToValueRatio",
      "outputs": [
        {
          "internalType": "uint256",
          "name": "",
          "type": "uint256"
        }
      ],
      "stateMutability": "view",
      "type": "function"
    },
    {
      "inputs": [],
      "name": "mortgageEther",
      "outputs": [],
      "stateMutability": "payable",
      "type": "function"
    },
    {
      "inputs": [],
      "name": "owner",
      "outputs": [
        {
          "internalType": "address",
          "name": "",
          "type": "address"
        }
      ],
      "stateMutability": "view",
      "type": "function"
    },
    {
      "inputs": [
        {
          "internalType": "uint256",
          "name": "amount",
          "type": "uint256"
        }
      ],
      "name": "payEMI",
      "outputs": [],
      "stateMutability": "nonpayable",
      "type": "function"
    },
    {
      "inputs": [],
      "name": "penaltyRate",
      "outputs": [
        {
          "internalType": "uint256",
          "name": "",
          "type": "uint256"
        }
      ],
      "stateMutability": "view",
      "type": "function"
    },
    {
      "inputs": [],
      "name": "renounceOwnership",
      "outputs": [],
      "stateMutability": "nonpayable",
      "type": "function"
    },
    {
      "inputs": [
        {
          "internalType": "address",
          "name": "newOwner",
          "type": "address"
        }
      ],
      "name": "transferOwnership",
      "outputs": [],
      "stateMutability": "nonpayable",
      "type": "function"
    },
    {
      "inputs": [
        {
          "internalType": "address",
          "name": "",
          "type": "address"
        }
      ],
      "name": "users",
      "outputs": [
        {
          "internalType": "uint256",
          "name": "usdBalance",
          "type": "uint256"
        },
        {
          "internalType": "uint256",
          "name": "mortgagedEth",
          "type": "uint256"
        },
        {
          "internalType": "uint256",
          "name": "lastPaymentTimestamp",
          "type": "uint256"
        }
      ],
      "stateMutability": "view",
      "type": "function"
    },
    {
      "inputs": [
        {
          "internalType": "uint256",
          "name": "amount",
          "type": "uint256"
        }
      ],
      "name": "withdrawFunds",
      "outputs": [],
      "stateMutability": "nonpayable",
      "type": "function"
    }
  ],
  "bytecode": "0x608060405234801561001057600080fd5b50604051610c4a380380610c4a83398101604081905261002f916100d5565b61003833610069565b600380546001600160a01b039384166001600160a01b03199182161790915560048054929093169116179055610108565b600080546001600160a01b038381166001600160a01b0319831681178455604051919092169283917f8be0079c531659141344cd1fd0a4f28419497f9722a3daafe3b4186f6b6457e09190a35050565b80516001600160a01b03811681146100d057600080fd5b919050565b600080604083850312156100e857600080fd5b6100f1836100b9565b91506100ff602084016100b9565b90509250929050565b610b33806101176000396000f3fe6080604052600436106101095760003560e01c8063a87430ba11610095578063cc3d967b11610064578063cc3d967b14610318578063d6b7494f1461016d578063e8b5e51f14610360578063ede80c5814610368578063f2fde38b1461037057600080fd5b8063a87430ba1461026c578063ab4766e8146102c2578063b6fa37bc146102d8578063c4579e72146102f857600080fd5b8063715018a6116100dc578063715018a614610182578063733706001461019757806378c40aea146101b75780638da5cb5b146101ef57806396b988621461020d57600080fd5b8063075d358a1461010e578063155dd5ee14610136578063157bf470146101585780636e2f203b1461016d575b600080fd5b34801561011a57600080fd5b50610123605081565b6040519081526020015b60405180910390f35b34801561014257600080fd5b50610156610151366004610a0e565b610390565b005b34801561016457600080fd5b50610123600681565b34801561017957600080fd5b50610123600781565b34801561018e57600080fd5b5061015661042a565b3480156101a357600080fd5b506101566101b2366004610a0e565b61043e565b3480156101c357600080fd5b506003546101d7906001600160a01b031681565b6040516001600160a01b03909116815260200161012d565b3480156101fb57600080fd5b506000546001600160a01b03166101d7565b34801561021957600080fd5b5061024d610228366004610a43565b600260205260009081526040902080546001909101546001600160a01b039091169082565b604080516001600160a01b03909316835260208301919091520161012d565b34801561027857600080fd5b506102a7610287366004610a43565b600160208190526000918252604090912080549181015460029091015483565b6040805193845260208401929092529082015260600161012d565b3480156102ce57600080fd5b50610123610fa081565b3480156102e457600080fd5b506004546101d7906001600160a01b031681565b34801561030457600080fd5b50610156610313366004610a5e565b610611565b34801561032457600080fd5b506102a7610333366004610a43565b6001600160a01b031660009081526001602081905260409091208054918101546002909101549192909190565b610156610642565b61015661074e565b34801561037c57600080fd5b5061015661038b366004610a43565b610891565b61039861090a565b478111156103ed5760405162461bcd60e51b815260206004820152601d60248201527f496e73756666696369656e7420636f6e74726163742062616c616e636500000060448201526064015b60405180910390fd5b600080546040516001600160a01b039091169183156108fc02918491818181858888f19350505050158015610426573d6000803e3d6000fd5b5050565b61043261090a565b61043c6000610964565b565b600081116104985760405162461bcd60e51b815260206004820152602160248201527f454d4920616d6f756e74206d7573742062652067726561746572207468616e206044820152600360fc1b60648201526084016103e4565b336000908152600160205260409020548111156104f75760405162461bcd60e51b815260206004820152601860248201527f496e73756666696369656e74205553442062616c616e6365000000000000000060448201526064016103e4565b6000610502826109b4565b33600090815260016020526040812080549293508492909190610526908490610a9e565b9091555050600080546040516001600160a01b039091169183156108fc02918491818181858888f19350505050158015610564573d6000803e3d6000fd5b50336000908152600160205260409020600201546105859062278d00610ab1565b42106105d757600061059983610fa06109f6565b6003546040519192506001600160a01b03169082156108fc029083906000818181858888f193505050501580156105d4573d6000803e3d6000fd5b50505b60405182815233907f02d00da62a666d159ac7383eb46211fbb2a4d3a76fcd713aea679a1bc9e462a3906020015b60405180910390a25050565b6001600160a01b03821660009081526001602052604081208054839290610639908490610ab1565b90915550505050565b600034116106a35760405162461bcd60e51b815260206004820152602860248201527f496e766573746d656e7420616d6f756e74206d75737420626520677265617465604482015267072207468616e20360c41b60648201526084016103e4565b33600081815260026020526040812080546001600160a01b0319169092178255600190910180543492906106d8908490610ab1565b90915550506004546040516001600160a01b03909116903480156108fc02916000818181858888f19350505050158015610716573d6000803e3d6000fd5b5060405134815233907f07146ef3ff2146eaf34fa4d392d4c56663333b682654b3123bf270f9ec529f319060200160405180910390a2565b600034116107ad5760405162461bcd60e51b815260206004820152602660248201527f4d6f72746761676520616d6f756e74206d75737420626520677265617465722060448201526507468616e20360d41b60648201526084016103e4565b60006107bb34610fa0610a02565b905060006107d560506107cf346064610a02565b906109f6565b336000908152600160205260408120805492935084929091906107f9908490610ab1565b90915550503360009081526001602081905260408220018054839290610820908490610ab1565b90915550506003546040516001600160a01b03909116903480156108fc02916000818181858888f1935050505015801561085e573d6000803e3d6000fd5b5060405134815233907f3b34c6cf525776d5f732260f37c3adf44f04895cc561b62cb62f1be31e6d48cb90602001610605565b61089961090a565b6001600160a01b0381166108fe5760405162461bcd60e51b815260206004820152602660248201527f4f776e61626c653a206e6577206f776e657220697320746865207a65726f206160448201526564647265737360d01b60648201526084016103e4565b61090781610964565b50565b6000546001600160a01b0316331461043c5760405162461bcd60e51b815260206004820181905260248201527f4f776e61626c653a2063616c6c6572206973206e6f7420746865206f776e657260448201526064016103e4565b600080546001600160a01b038381166001600160a01b0319831681178455604051919092169283917f8be0079c531659141344cd1fd0a4f28419497f9722a3daafe3b4186f6b6457e09190a35050565b3360009081526001602052604081206002015481906109d69062278d00610ab1565b4211156109f0576109ed60646107cf856007610a02565b90505b92915050565b60006109ed8284610ac4565b60006109ed8284610ae6565b600060208284031215610a2057600080fd5b5035919050565b80356001600160a01b0381168114610a3e57600080fd5b919050565b600060208284031215610a5557600080fd5b6109ed82610a27565b60008060408385031215610a7157600080fd5b610a7a83610a27565b946020939093013593505050565b634e487b7160e01b600052601160045260246000fd5b818103818111156109f0576109f0610a88565b808201808211156109f0576109f0610a88565b600082610ae157634e487b7160e01b600052601260045260246000fd5b500490565b80820281158282048414176109f0576109f0610a8856fea2646970667358221220082d02df6c596fe60013ef0fff6751a56b9e9140b7982e9dd1a7027149132fcf64736f6c63430008110033",
  "linkReferences": {},
  "deployedLinkReferences": {}
}